{
  "contractName": "ResourceResponseContract",
  "abi": [
    {
      "constant": true,
      "inputs": [
        {
          "internalType": "uint256",
          "name": "",
          "type": "uint256"
        }
      ],
      "name": "responses",
      "outputs": [
        {
          "internalType": "uint256",
          "name": "requestId",
          "type": "uint256"
        },
        {
          "internalType": "bytes",
          "name": "encryptedData",
          "type": "bytes"
        },
        {
          "internalType": "bytes",
          "name": "multiSignature",
          "type": "bytes"
        }
      ],
      "payable": false,
      "stateMutability": "view",
      "type": "function"
    },
    {
      "constant": false,
      "inputs": [
        {
          "internalType": "uint256",
          "name": "requestId",
          "type": "uint256"
        },
        {
          "internalType": "bytes",
          "name": "encryptedData",
          "type": "bytes"
        },
        {
          "internalType": "bytes",
          "name": "multiSignature",
          "type": "bytes"
        },
        {
          "internalType": "uint256[]",
          "name": "signerIds",
          "type": "uint256[]"
        }
      ],
      "name": "postResponse",
      "outputs": [],
      "payable": false,
      "stateMutability": "nonpayable",
      "type": "function"
    },
    {
      "constant": true,
      "inputs": [
        {
          "internalType": "uint256",
          "name": "responseId",
          "type": "uint256"
        },
        {
          "internalType": "bytes",
          "name": "publicKeys",
          "type": "bytes"
        }
      ],
      "name": "verifyResponse",
      "outputs": [
        {
          "internalType": "bool",
          "name": "",
          "type": "bool"
        }
      ],
      "payable": false,
      "stateMutability": "view",
      "type": "function"
    }
  ],
  "bytecode": "0x608060405234801561001057600080fd5b5061077f806100206000396000f3fe608060405234801561001057600080fd5b50600436106100415760003560e01c806314a779a514610046578063ea73343f14610123578063ed35d7e514610313575b600080fd5b6101096004803603604081101561005c57600080fd5b81019080803590602001909291908035906020019064010000000081111561008357600080fd5b82018360208201111561009557600080fd5b803590602001918460018302840111640100000000831117156100b757600080fd5b91908080601f016020809104026020016040519081016040528093929190818152602001838380828437600081840152601f19601f82011690508083019250505050505050919291929050505061042d565b604051808215151515815260200191505060405180910390f35b6103116004803603608081101561013957600080fd5b81019080803590602001909291908035906020019064010000000081111561016057600080fd5b82018360208201111561017257600080fd5b8035906020019184600183028401116401000000008311171561019457600080fd5b91908080601f016020809104026020016040519081016040528093929190818152602001838380828437600081840152601f19601f820116905080830192505050505050509192919290803590602001906401000000008111156101f757600080fd5b82018360208201111561020957600080fd5b8035906020019184600183028401116401000000008311171561022b57600080fd5b91908080601f016020809104026020016040519081016040528093929190818152602001838380828437600081840152601f19601f8201169050808301925050505050505091929192908035906020019064010000000081111561028e57600080fd5b8201836020820111156102a057600080fd5b803590602001918460208302840111640100000000831117156102c257600080fd5b919080806020026020016040519081016040528093929190818152602001838360200280828437600081840152601f19601f820116905080830192505050505050509192919290505050610439565b005b61033f6004803603602081101561032957600080fd5b81019080803590602001909291905050506104f1565b604051808481526020018060200180602001838103835285818151815260200191508051906020019080838360005b8381101561038957808201518184015260208101905061036e565b50505050905090810190601f1680156103b65780820380516001836020036101000a031916815260200191505b50838103825284818151815260200191508051906020019080838360005b838110156103ef5780820151818401526020810190506103d4565b50505050905090810190601f16801561041c5780820380516001836020036101000a031916815260200191505b509550505050505060405180910390f35b60006001905092915050565b6000604051806080016040528086815260200185815260200184815260200183815250908060018154018082558091505090600182039060005260206000209060040201600090919290919091506000820151816000015560208201518160010190805190602001906104ad929190610658565b5060408201518160020190805190602001906104ca929190610658565b5060608201518160030190805190602001906104e79291906106d8565b5050505050505050565b600081815481106104fe57fe5b9060005260206000209060040201600091509050806000015490806001018054600181600116156101000203166002900480601f0160208091040260200160405190810160405280929190818152602001828054600181600116156101000203166002900480156105b05780601f10610585576101008083540402835291602001916105b0565b820191906000526020600020905b81548152906001019060200180831161059357829003601f168201915b505050505090806002018054600181600116156101000203166002900480601f01602080910402602001604051908101604052809291908181526020018280546001816001161561010002031660029004801561064e5780601f106106235761010080835404028352916020019161064e565b820191906000526020600020905b81548152906001019060200180831161063157829003601f168201915b5050505050905083565b828054600181600116156101000203166002900490600052602060002090601f016020900481019282601f1061069957805160ff19168380011785556106c7565b828001600101855582156106c7579182015b828111156106c65782518255916020019190600101906106ab565b5b5090506106d49190610725565b5090565b828054828255906000526020600020908101928215610714579160200282015b828111156107135782518255916020019190600101906106f8565b5b5090506107219190610725565b5090565b61074791905b8082111561074357600081600090555060010161072b565b5090565b9056fea265627a7a723158202b790f6e9fe8e3f21608387d67609590bdc7b497f12070be6886ad5e0291065864736f6c63430005100032",
  "source": "// SPDX-License-Identifier: MIT\npragma solidity ^0.5.0;\n\ncontract UserRequestContract {\n    struct Request {\n        address consumer;\n        string vmSpecs;\n        uint duration;\n        uint blockNumber;\n        uint offset;\n    }\n    \n    Request[] public requests;\n    event RequestSubmitted(uint requestId, address consumer, string vmSpecs, uint duration);\n    \n    function submitRequest(string memory vmSpecs, uint duration) public {\n        uint requestId = requests.length;\n        requests.push(Request(msg.sender, vmSpecs, duration, block.number, requestId));\n        emit RequestSubmitted(requestId, msg.sender, vmSpecs, duration);\n    }\n}\n\ncontract ResourceResponseContract {\n    struct Response {\n        uint requestId;\n        bytes encryptedData;\n        bytes multiSignature;\n        uint[] signerIds;\n    }\n    \n    Response[] public responses;\n    \n    function postResponse(uint requestId, bytes memory encryptedData, bytes memory multiSignature, uint[] memory signerIds) public {\n        responses.push(Response(requestId, encryptedData, multiSignature, signerIds));\n    }\n    \n    function verifyResponse(uint responseId, bytes memory publicKeys) public view returns (bool) {\n        return true; // Placeholder for BLS verification\n    }\n}\n",
  "sourcePath": "/home/kalp-77/Desktop/bct/contracts/CollabFed.sol",
  "compiler": {
    "name": "solc",
    "version": "0.5.16+commit.9c3226ce.Emscripten.clang"
  },
  "schemaVersion": "3.4.16",
  "updatedAt": "2025-04-20T18:17:53.855Z",
  "networkType": "ethereum",
  "devdoc": {
    "methods": {}
  },
  "userdoc": {
    "methods": {}
  }
}