{
  "contractName": "UserRequestContract",
  "abi": [
    {
      "anonymous": false,
      "inputs": [
        {
          "indexed": false,
          "internalType": "uint256",
          "name": "requestId",
          "type": "uint256"
        },
        {
          "indexed": false,
          "internalType": "address",
          "name": "consumer",
          "type": "address"
        },
        {
          "indexed": false,
          "internalType": "string",
          "name": "vmSpecs",
          "type": "string"
        },
        {
          "indexed": false,
          "internalType": "uint256",
          "name": "duration",
          "type": "uint256"
        }
      ],
      "name": "RequestSubmitted",
      "type": "event"
    },
    {
      "constant": true,
      "inputs": [
        {
          "internalType": "uint256",
          "name": "",
          "type": "uint256"
        }
      ],
      "name": "requests",
      "outputs": [
        {
          "internalType": "address",
          "name": "consumer",
          "type": "address"
        },
        {
          "internalType": "string",
          "name": "vmSpecs",
          "type": "string"
        },
        {
          "internalType": "uint256",
          "name": "duration",
          "type": "uint256"
        },
        {
          "internalType": "uint256",
          "name": "blockNumber",
          "type": "uint256"
        },
        {
          "internalType": "uint256",
          "name": "offset",
          "type": "uint256"
        }
      ],
      "payable": false,
      "stateMutability": "view",
      "type": "function"
    },
    {
      "constant": false,
      "inputs": [
        {
          "internalType": "string",
          "name": "vmSpecs",
          "type": "string"
        },
        {
          "internalType": "uint256",
          "name": "duration",
          "type": "uint256"
        }
      ],
      "name": "submitRequest",
      "outputs": [],
      "payable": false,
      "stateMutability": "nonpayable",
      "type": "function"
    }
  ],
  "bytecode": "0x608060405234801561001057600080fd5b506105a1806100206000396000f3fe608060405234801561001057600080fd5b50600436106100365760003560e01c806381d12c581461003b578063b5cb71a81461012a575b600080fd5b6100676004803603602081101561005157600080fd5b81019080803590602001909291905050506101ef565b604051808673ffffffffffffffffffffffffffffffffffffffff1673ffffffffffffffffffffffffffffffffffffffff16815260200180602001858152602001848152602001838152602001828103825286818151815260200191508051906020019080838360005b838110156100eb5780820151818401526020810190506100d0565b50505050905090810190601f1680156101185780820380516001836020036101000a031916815260200191505b50965050505050505060405180910390f35b6101ed6004803603604081101561014057600080fd5b810190808035906020019064010000000081111561015d57600080fd5b82018360208201111561016f57600080fd5b8035906020019184600183028401116401000000008311171561019157600080fd5b91908080601f016020809104026020016040519081016040528093929190818152602001838380828437600081840152601f19601f820116905080830192505050505050509192919290803590602001909291905050506102ea565b005b600081815481106101fc57fe5b90600052602060002090600502016000915090508060000160009054906101000a900473ffffffffffffffffffffffffffffffffffffffff1690806001018054600181600116156101000203166002900480601f0160208091040260200160405190810160405280929190818152602001828054600181600116156101000203166002900480156102ce5780601f106102a3576101008083540402835291602001916102ce565b820191906000526020600020905b8154815290600101906020018083116102b157829003601f168201915b5050505050908060020154908060030154908060040154905085565b60008080549050905060006040518060a001604052803373ffffffffffffffffffffffffffffffffffffffff168152602001858152602001848152602001438152602001838152509080600181540180825580915050906001820390600052602060002090600502016000909192909190915060008201518160000160006101000a81548173ffffffffffffffffffffffffffffffffffffffff021916908373ffffffffffffffffffffffffffffffffffffffff16021790555060208201518160010190805190602001906103c09291906104c7565b506040820151816002015560608201518160030155608082015181600401555050507f8a05ed87377b6ad0dcfefa9e32cbfce3a85e4f167cd7c9f4231503ea4b2e3bea81338585604051808581526020018473ffffffffffffffffffffffffffffffffffffffff1673ffffffffffffffffffffffffffffffffffffffff16815260200180602001838152602001828103825284818151815260200191508051906020019080838360005b8381101561048557808201518184015260208101905061046a565b50505050905090810190601f1680156104b25780820380516001836020036101000a031916815260200191505b509550505050505060405180910390a1505050565b828054600181600116156101000203166002900490600052602060002090601f016020900481019282601f1061050857805160ff1916838001178555610536565b82800160010185558215610536579182015b8281111561053557825182559160200191906001019061051a565b5b5090506105439190610547565b5090565b61056991905b8082111561056557600081600090555060010161054d565b5090565b9056fea265627a7a723158204cc6f79b2c496109b82b07d9deb8b823e2cd8040e02af115966504f815799aef64736f6c63430005100032",
  "source": "// SPDX-License-Identifier: MIT\npragma solidity ^0.5.0;\n\ncontract UserRequestContract {\n    struct Request {\n        address consumer;\n        string vmSpecs;\n        uint duration;\n        uint blockNumber;\n        uint offset;\n    }\n    \n    Request[] public requests;\n    event RequestSubmitted(uint requestId, address consumer, string vmSpecs, uint duration);\n    \n    function submitRequest(string memory vmSpecs, uint duration) public {\n        uint requestId = requests.length;\n        requests.push(Request(msg.sender, vmSpecs, duration, block.number, requestId));\n        emit RequestSubmitted(requestId, msg.sender, vmSpecs, duration);\n    }\n}\n\ncontract ResourceResponseContract {\n    struct Response {\n        uint requestId;\n        bytes encryptedData;\n        bytes multiSignature;\n        uint[] signerIds;\n    }\n    \n    Response[] public responses;\n    \n    function postResponse(uint requestId, bytes memory encryptedData, bytes memory multiSignature, uint[] memory signerIds) public {\n        responses.push(Response(requestId, encryptedData, multiSignature, signerIds));\n    }\n    \n    function verifyResponse(uint responseId, bytes memory publicKeys) public view returns (bool) {\n        return true; // Placeholder for BLS verification\n    }\n}\n",
  "sourcePath": "/home/kalp-77/Desktop/bct/contracts/CollabFed.sol",
  "compiler": {
    "name": "solc",
    "version": "0.5.16+commit.9c3226ce.Emscripten.clang"
  },
  "schemaVersion": "3.4.16",
  "updatedAt": "2025-04-20T18:17:53.853Z",
  "networkType": "ethereum",
  "devdoc": {
    "methods": {}
  },
  "userdoc": {
    "methods": {}
  }
}